:100000000C9443000C9458000C9458000C94580025
:100010000C9458000C9458000C9458000C94580000
:100020000C9458000C9458000C9458000C945800F0
:100030000C9458000C9458000C9458000C945800E0
:100040000C9458000C9458000C9458000C945800D0
:100050000C9458000C9458000C9458000C945800C0
:100060000C9458000C94580005A84CCDB2D44EB94D
:100070003836A9020C50B9918688083CA6AAAA2A4B
:10008000BE000000803F11241FBECFEFD8E0DEBFCE
:10009000CDBF11E0A0E0B1E0EAEBF7E002C00590CF
:1000A0000D92A030B107D9F70E9484000C94DB03B5
:1000B0000C94000094B1892B84B9089584B18660B2
:1000C00084B98FEF9FEF90938700809386008FEF26
:1000D0009FE390938900809388008FEF9FEB90932C
:1000E0008B0080938A00E0E8F0E08081806A808362
:1000F000808182608083E1E8F0E080818861808394
:10010000808181608083089580E20E945A000E946D
:100110005E000AE510E0C0E0D0E00F2EF8E8CF2E38
:10012000D12CF02D0F2EFAE82F2E312CF02D0F2E82
:10013000F8E6EF2EFF24F394F02DBE0180E090E06E
:100140000E9449022BED3FE049E450E40E9416036F
:1001500020E030E044E353E40E94A8010E94A301A0
:100160004B015C01B80180E090E00E9449022BED58
:100170003FE049E450E40E94160320E030E044E30D
:1001800053E40E94A8010E94A3012B013C0120E03E
:1001900030E040E05FEBC501B4010E94160320E0AF
:1001A00030E040E05FE30E94370120E03FEF4FE79F
:1001B00057E40E9416030E941A024B015C0120E0E2
:1001C00030E040E05FEBC301B2010E94160320E083
:1001D00030E040E05FE30E94370120E03FEF4FE76F
:1001E00057E40E9416030E941A02F601918280824F
:1001F000F101718360839E01A3E8BDE20E94CC03FC
:10020000AC010024440F551F001C440F551F001C57
:10021000452F502D4E9DC0014F9D900D5E9D900D20
:100220001124AE01481B590B98010E94CC030024F5
:10023000880F991F001C880F991F001C892F902D73
:100240008E9D90018F9D300D9E9D300D1124C80113
:10025000821B930BEA0121968C010F5F1F4F8FE5E4
:100260009AEE0197F1F700C0000067CF5058BB2706
:10027000AA270E944E010C94C8020E948F0238F0F7
:100280000E94960220F039F49F3F19F426F40C9452
:100290008C020EF4E095E7FB0C948602E92F0E9495
:1002A000ED0258F3BA17620773078407950720F029
:1002B00079F4A6F50C940F030EF4E0950B2EBA2FEB
:1002C000A02D0B01B90190010C01CA01A00111245C
:1002D000FF27591B99F0593F50F4503E68F11A1608
:1002E000F040A22F232F342F4427585FF3CF469599
:1002F00037952795A795F0405395C9F77EF41F16BB
:10030000BA0B620B730B840BBAF09150A1F0FF0F84
:10031000BB1F661F771F881FC2F70EC0BA0F621F70
:10032000731F841F48F4879577956795B795F79560
:100330009E3F08F0B0CF9395880F08F09927EE0FF5
:100340009795879508950E949F02E3950C94D90292
:100350000E94BC010C94C8020E94960258F00E94B0
:100360008F0240F029F45F3F29F00C94860251116E
:100370000C9410030C948C020E94ED0268F39923F4
:10038000B1F3552391F3951B550BBB27AA27621791
:100390007307840738F09F5F5F4F220F331F441F9E
:1003A000AA1FA9F335D00E2E3AF0E0E832D09150D2
:1003B0005040E695001CCAF72BD0FE2F29D0660FBF
:1003C000771F881FBB1F261737074807AB07B0E802
:1003D00009F0BB0B802DBF01FF2793585F4F3AF008
:1003E0009E3F510578F00C9486020C9410035F3FF9
:1003F000E4F3983ED4F3869577956795B795F7958E
:100400009F5FC9F7880F911D9695879597F9089575
:10041000E1E0660F771F881FBB1F62177307840711
:10042000BA0720F0621B730B840BBA0BEE1F88F720
:10043000E09508950E94F50288F09F5798F0B92F33
:100440009927B751B0F0E1F0660F771F881F991F09
:100450001AF0BA95C9F714C0B13091F00E940F0399
:10046000B1E008950C940F03672F782F8827B85FA9
:1004700039F0B93FCCF3869577956795B395D9F761
:100480003EF490958095709561957F4F8F4F9F4F6B
:100490000895E89409C097FB3EF490958095709577
:1004A00061957F4F8F4F9F4F9923A9F0F92F96E9C0
:1004B000BB279395F695879577956795B795F11135
:1004C000F8CFFAF4BB0F11F460FF1BC06F5F7F4FD2
:1004D0008F4F9F4F16C0882311F096E911C07723E4
:1004E00021F09EE8872F762F05C0662371F096E8ED
:1004F000862F70E060E02AF09A95660F771F881FBC
:10050000DAF7880F9695879597F9089597F99F6779
:1005100080E870E060E008959FEF80EC089500248B
:100520000A941616170618060906089500240A9458
:10053000121613061406050608950C948C020E94E8
:10054000F502D8F3E894E0E0BB279F57F0F02AEDDE
:100550003FE049EC06C0EE0FBB0F661F771F881FF8
:1005600028F0B23A62077307840728F0B25A620B88
:10057000730B840BE3959A9572F7803830F49A9553
:10058000BB0F661F771F881FD2F790480C94850316
:10059000092E0394000C11F4882352F0BB0F40F491
:1005A000BF2B11F460FF04C06F5F7F4F8F4F9F4FD1
:1005B0000895EF93E0FF07C0A2EA2AED3FE049EC7F
:1005C0005FEB0E944E010E94C8020F90039401FC51
:1005D0009058E8E6F0E00C94910357FD9058440FD2
:1005E000551F59F05F3F71F04795880F97FB991F92
:1005F00061F09F3F79F0879508951216130614064F
:10060000551FF2CF4695F1DF08C0161617061806DB
:10061000991FF1CF86957105610508940895E894B6
:10062000BB2766277727CB0197F908950E942903F6
:100630000C94C8020E948F0238F00E94960220F0AB
:10064000952311F00C9486020C948C0211240C94C6
:1006500010030E94ED0270F3959FC1F3950F50E0D7
:10066000551F629FF001729FBB27F00DB11D639F64
:10067000AA27F00DB11DAA1F649F6627B00DA11D0A
:10068000661F829F2227B00DA11D621F739FB00DB0
:10069000A11D621F839FA00D611D221F749F332720
:1006A000A00D611D231F849F600D211D822F762FB9
:1006B0006A2F11249F5750409AF0F1F088234AF096
:1006C000EE0FFF1FBB1F661F771F881F9150504002
:1006D000A9F79E3F510580F00C9486020C941003FC
:1006E0005F3FE4F3983ED4F3869577956795B79589
:1006F000F795E7959F5FC1F7FE2B880F911D9695A3
:10070000879597F908959F3F31F0915020F4879590
:1007100077956795B795880F911D9695879597F969
:1007200008959F938F937F936F93FF93EF939B0114
:10073000AC010E941603EF91FF910E94A5032F9137
:100740003F914F915F910C941603DF93CF931F93CA
:100750000F93FF92EF92DF927B018C01689406C0A9
:10076000DA2EEF010E942903FE01E894A59125915C
:10077000359145915591A6F3EF010E944E01FE017E
:100780009701A801DA9469F7DF90EF90FF900F913D
:100790001F91CF91DF910895A29FB001B39FC00137
:1007A000A39F700D811D1124911DB29F700D811D9D
:0A07B0001124911D0895F894FFCF65
:00000001FF
