:100000000C9434000C9449000C9449000C94490061
:100010000C9449000C9449000C9449000C9449003C
:100020000C9449000C9449000C9449000C9449002C
:100030000C9449000C9449000C9449000C9449001C
:100040000C9449000C9449000C9449000C9449000C
:100050000C9449000C9449000C9449000C944900FC
:100060000C9449000C94490011241FBECFEFD8E036
:10007000DEBFCDBF11E0A0E0B1E0EEEDF0E002C0E8
:1000800005900D92A030B107D9F70E9462000C9440
:100090006D000C94000095B1892B85B92FEF83ED8D
:1000A00090E3215080409040E1F700C0000015B877
:1000B0002FEF83ED90E3215080409040E1F700C0A6
:1000C0000000089584B1866084B940E050E06AE79A
:0E00D00074E480E20E944B00F8CFF894FFCF5A
:00000001FF
