S00D0000426C696E6B2E7372656327
S11300000C9434000C9449000C9449000C9449005D
S11300100C9449000C9449000C9449000C94490038
S11300200C9449000C9449000C9449000C94490028
S11300300C9449000C9449000C9449000C94490018
S11300400C9449000C9449000C9449000C94490008
S11300500C9449000C9449000C9449000C944900F8
S11300600C9449000C94490011241FBECFEFD8E032
S1130070DEBFCDBF11E0A0E0B1E0EAEFF0E002C0E6
S113008005900D92A030B107D9F70E9475000C9429
S11300907B000C94000094B1892B84B9089584B139
S11300A0866084B98FEF9FEF9093870080938600DA
S11300B08FEF9FE390938900809388008FEF9FEBED
S11300C090938B0080938A00E0E8F0E08081806A5E
S11300D08083808182608083E1E8F0E080818861B0
S11300E08083808181608083089580E20E944B0038
S10D00F00E944F00FFCFF894FFCFE9
S9030000FC
