:100000000C9434000C943E000C943E000C943E0082
:100010000C943E000C943E000C943E000C943E0068
:100020000C943E000C943E000C943E000C943E0058
:100030000C943E000C943E000C943E000C943E0048
:100040000C943E000C943E000C943E000C943E0038
:100050000C943E000C943E000C943E000C943E0028
:100060000C943E000C943E0011241FBECFEFD8E04C
:10007000DEBFCDBF0E9440000C9458000C940000DD
:1000800084B18C6084B92B9A2FEF83ED90E32150DB
:1000900080409040E1F700C000002A9A2FEF83EDE6
:1000A00090E3215080409040E1F700C00000EBCF8A
:0400B000F894FFCFF2
:00000001FF
